:1000000013C1000041C100003FC100003DC100001C
:100010003BC1000039C1000037C1000035C10000FC
:1000200033C1000031C100002FC100002DC100000C
:100030002BC1000029C1000027C1000025C100001C
:1000400023C100000C9497131FC100001DC10000C4
:100050000C94671419C1000017C1000070C700009C
:1000600013C10000D1C4000005C500000DC100008F
:100070000BC1000009C1000007C1000005C100005C
:100080000C94C41301C10000FFC00000FDC00000BB
:10009000FBC00000F9C00000F7C000000C94AB0AE0
:1000A000F3C00000F1C000000C94F113EDC000009B
:1000B000EBC00000E9C00000E7C000000C941E1473
:1000C000E3C00000E1C00000DFC00000DDC00000B0
:1000D000DBC00000D9C00000D7C00000D5C00000C0
:1000E000D3C00000AA14AD149C14A014A614E414E8
:1000F000B114B514BB14BF14C314C914CD14D11456
:10010000E414D714DB14DF14084AD73B3BCE016E4E
:1001100084BCBFFDC12F3D6C74319ABD56833DDA5E
:100120003D00C77F11BED9E4BB4C3E916BAAAABE6D
:10013000000000803F0000000A0B02090C0D0E08B1
:1001400007030401000000000000000000000000A0
:10015000000000000000000000000000000000009F
:10016000000012111000000000000000000000005C
:10017000000000000000000000000000010210204C
:1001800020080810204010204080020102010804CD
:100190000201010204081020408080402010080461
:1001A00002018004020180402010080402010804BA
:1001B00002010102040810204080010204081020FE
:1001C0004080050505050705080808080202020227
:1001D0000A0A0808040404040101010101010101E3
:1001E0000303030303030303040707070C0C0C0CAE
:1001F0000C0C0C0C02020202060606060606060697
:100200000B0B0B0B0B0B0B0B000022002500280027
:100210002B002E003100340002010000050108010E
:100220000B0177036C05C20911241FBECFEFD1E289
:10023000DEBFCDBF00E00CBF12E0A0E0B2E0EEE90F
:10024000F0E300E00BBF02C007900D92A63EB1079D
:10025000D9F725E0A6EEB2E001C01D92A136B207A3
:10026000E1F712E0C8E2D2E000E006C022970109FF
:10027000FE010BBF0E944215C232D10780E0080781
:10028000A9F753D60C944D18BBCE81E08093FA02A7
:100290000895CF92DF92EF92FF920F931F9326E083
:1002A00040E855E260E070E081E693E04BD364E023
:1002B00072E081E693E091D41092E6021092E70298
:1002C0001092E8021092E9021092FA021092EA02E9
:1002D0001092EB021092EC021092ED021092EE02DC
:1002E0001092EF021092F0021092F1021092F202BC
:1002F0001092F3021092F4021092F5021092F6029C
:100300001092F7021092F8021092F90287E094E03E
:10031000B2D76BE072E081E693E06AD420E040E07F
:1003200060E087E393E00E941E0CC12CD12C760183
:1003300097018601B701A60187E393E00E94E70BCE
:1003400068E270E087E393E00E94400E60E272E0B2
:1003500081E693E04DD468E270E089E193E00E9489
:1003600084106CE272E081E693E042D4E1E8F0E0D0
:1003700080E180831092800082E080935E0580E1BE
:1003800097E29093600580935F0590938700809338
:10039000860082E1808385E491E090935D058093FF
:1003A0005C0581E080936F001F910F91FF90EF90AB
:1003B000DF90CF9008954F925F926F927F928F92CD
:1003C0009F92AF92BF92CF92DF92EF92FF92CF9324
:1003D000DF93CDB7DEB764970FB6F894DEBF0FBEDC
:1003E000CDBF87E393E00E94A50D2D873E874F8701
:1003F000588B698B7A8B8B8B9C8B8091FA0288232C
:1004000009F40DC11092FA02E4D56B017C0169E197
:1004100073E0CE0101960E94AC0F8D809E80AF806C
:10042000B8848091E6029091E702A091E802B09131
:10043000E902A7019601281B390B4A0B5B0BCA0185
:10044000B901C092E602D092E702E092E802F0928F
:10045000E9020E94AA1620E034E244E759E40E942F
:1004600011166B017C0129813A814B815C810E94CC
:100470008C172091F6023091F7024091F8025091CA
:10048000F9020E94471523E333E343E75FE30E9449
:100490008C172B013C012DEC3CEC4CE45DE36989AD
:1004A0007A898B899C890E948C179B01AC01C301BE
:1004B000B2010E9447156093F6027093F702809391
:1004C000F8029093F902A7019601C501B4010E94B8
:1004D0008C176B017C019B01AC016091F202709161
:1004E000F3028091F4029091F5020E94461523E3F5
:1004F00033E343E75FE30E948C174B015C012DEC73
:100500003CEC4CE45DE36D857E858F8598890E9487
:100510008C179B01AC01C501B4010E944715609383
:10052000F2027093F3028093F4029093F502A70114
:1005300096016091EE027091EF028091F00290912D
:10054000F1020E94461523E333E343E75FE30E9491
:100550008C176B017C012DEC3CEC4CE45DE360916D
:10056000EA027091EB028091EC029091ED020E9400
:100570008C179B01AC01C701B6010E94471560931F
:10058000EE027093EF028093F0029093F1026BE31E
:1005900072E081E693E021D34091F6025091F70298
:1005A0006091F8027091F90222E030E081E693E078
:1005B000AAD462E472E081E693E00FD34091F202A4
:1005C0005091F3026091F4027091F50222E030E064
:1005D00081E693E098D46BE472E081E693E0FDD28B
:1005E0004091EE025091EF026091F0027091F102A1
:1005F00022E030E081E693E086D462E572E081E6B5
:1006000093E0EBD24091EA025091EB026091EC0250
:100610007091ED0222E030E081E693E075D46BEF5B
:1006200072E0CE0101960E94131229813A814B811A
:100630005C816D817E818F8198850E94BA152EE63E
:1006400036E44DE95DE30E9446156B017C0120E034
:1006500030E0A9010E940D1687FF0AC02BED3FE094
:1006600049EC50E4C701B6010E9447156B017C01BB
:100670002BED3FE049EC50E4C701B6010E94811721
:10068000181654F42BED3FE049EC50E4C701B601D5
:100690000E9446156B017C0120E030E044E353E406
:1006A000C701B6010E948C172BED3FE049E450E4EE
:1006B0000E9411166093EA027093EB028093EC02A1
:1006C0009093ED0264960FB6F894DEBF0FBECDBFD7
:1006D000DF91CF91FF90EF90DF90CF90BF90AF90E0
:1006E0009F908F907F906F905F904F9008958EE5D0
:1006F00093E00E944B148BE593E00E944B1488E535
:1007000093E00E944B1485E593E00E944B1487E32D
:1007100093E00E94D90B89E193E00E94270F8BEFB1
:1007200092E00C946111FC01818D228D90E0805C3F
:100730009F4F821B91098F7399270895FC01918D1A
:10074000828D981731F0828DE80FF11D858D90E034
:1007500008958FEF9FEF0895FC01918D828D98177A
:1007600061F0828DDF01A80FB11D5D968C91928D95
:100770009F5F9F73928F90E008958FEF9FEF089592
:1007800083E695E0892B39F080E090E0892B19F021
:100790009AD1811125C080E090E0892B41F080E062
:1007A00090E0892B21F00E94000081111CC080E0A4
:1007B00090E0892B41F080E090E0892B21F00E94AD
:1007C0000000811113C080E090E0892BA1F080E04F
:1007D00090E0892B81F00E94000081110AC00895E9
:1007E0000E940000D8CF0E940000E1CF0E940000CC
:1007F000EACF0C9400000895FC01848DDF01A80F5E
:10080000B11DA35ABF4F2C91848D90E001968F7338
:100810009927848FA689B7892C93A089B1898C9157
:1008200080648C93938D848D981306C00288F3891D
:10083000E02D80818F7D80830895CF93DF93EC013D
:10084000888D8823C1F0EA89FB89808185FD05C0F8
:10085000A889B9898C9186FD0EC00FB607FCF5CF2B
:10086000808185FFF2CFA889B9898C9185FFEDCF72
:10087000CE01C2DFE8CFDF91CF910895CF92DF9212
:10088000FF920F931F93CF93DF931F92CDB7DEB7E5
:100890006C0181E0D60158968C9358975B969C9199
:1008A0005B975C968C915C97981307C05096ED917E
:1008B000FC915197808185FD2DC0F601038D10E0DC
:1008C0000F5F1F4F0F731127F02EF601848DF81262
:1008D00010C00FB607FCF9CFD6015096ED91FC91F0
:1008E0005197808185FFF1CFC601698385DF6981DA
:1008F000ECCF838DE80FF11DE35AFF4F6083D601E3
:100900005B960C935B975296ED91FC915397808187
:1009100080620CC0D6015696ED91FC91579760838A
:100920005096ED91FC91519780818064808381E0A5
:1009300090E00F90DF91CF911F910F91FF90DF908A
:10094000CF900895BF92CF92DF92EF92FF92CF9314
:10095000DF93EC016A017B01B22EE889F98982E01C
:100960008083411581EE580761057105A1F060E0B3
:1009700079E08DE390E0A70196010E941A152150BD
:100980003109410951095695479537952795211504
:1009900080E1380798F0E889F989108260E874E806
:1009A0008EE190E0A70196010E941A1521503109AD
:1009B000410951095695479537952795EC85FD8551
:1009C0003083EE85FF852083188EEC89FD89B08207
:1009D000EA89FB89808180618083EA89FB89808143
:1009E00088608083EA89FB89808180688083EA89C6
:1009F000FB8980818F7D8083DF91CF91FF90EF9085
:100A0000DF90CF90BF9008951F920F920FB60F9274
:100A100011240BB60F922F938F939F93EF93FF9315
:100A2000E0917103F09172038081E0917703F0917E
:100A3000780382FD12C0908180917A038F5F8F735B
:100A400020917B03821751F0E0917A03F0E0EF5997
:100A5000FC4F958F80937A0301C08081FF91EF91C5
:100A60009F918F912F910F900BBE0F900FBE0F9003
:100A70001F9018951F920F920FB60F9211240BB66C
:100A80000F922F933F934F935F936F937F938F9327
:100A90009F93AF93BF93EF93FF9381E693E0ACDE18
:100AA000FF91EF91BF91AF919F918F917F916F9146
:100AB0005F914F913F912F910F900BBE0F900FBE02
:100AC0000F901F90189581E693E02DDE21E0892B91
:100AD00009F420E0822F08951092640310926303BA
:100AE00088EE93E0A0E0B0E0809365039093660306
:100AF000A0936703B093680381E692E0909362034A
:100B00008093610385EC90E090936E0380936D0376
:100B100084EC90E09093700380936F0380EC90E0FE
:100B2000909372038093710381EC90E0909374032F
:100B30008093730382EC90E0909376038093750327
:100B400086EC90E0909378038093770310927A0379
:100B500010927B0310927C0310927D030895CF9234
:100B6000DF92EF92FF920F931F93CF93DF937C015D
:100B70006A01EB0100E010E00C151D0571F06991B0
:100B8000D701ED91FC910190F081E02DC7011995FD
:100B9000892B19F00F5F1F4FEFCFC801DF91CF9165
:100BA0001F910F91FF90EF90DF90CF900895611506
:100BB000710581F0DB010D900020E9F7AD01415096
:100BC0005109461B570BDC01ED91FC910280F3812A
:100BD000E02D199480E090E00895E9CFDC01ED91DB
:100BE000FC910190F081E02D19946DE672E0DFCF69
:100BF0000F931F93CF93DF93EC01D9DF8C01CE01CC
:100C0000F4DF800F911FDF91CF911F910F91089515
:100C10008F929F92AF92BF92DF92EF92FF920F93CB
:100C20001F93CF93DF93CDB7DEB7A1970FB6F8949C
:100C3000DEBF0FBECDBF7C01F42FD52ECB0119A294
:100C4000223008F42AE08E010F5D1F4F822E912C76
:100C5000A12CB12C6F2F7D2DA50194010E941A1596
:100C6000F22FD32ECA01015011096A3014F4E0E3C7
:100C700001C0E7E3E60FD801EC93232B242B252BAF
:100C800049F7B801C70193DFA1960FB6F894DEBF0C
:100C90000FBECDBFDF91CF911F910F91FF90EF90CD
:100CA000DF90BF90AF909F908F900895CF92DF928A
:100CB000EF92FF920F931F93CF93DF93EC016A01A2
:100CC0007B012115310579F4E881F9810190F081EA
:100CD000E02D642FDF91CF911F910F91FF90EF9046
:100CE000DF90CF9019942A303105D9F477FF18C0DE
:100CF0006DE274DF8C0144275527BA014C195D0958
:100D00006E097F092AE0CE0183DF800F911FDF91FA
:100D1000CF911F910F91FF90EF90DF90CF900895AA
:100D20002AE0B701A601CE01DF91CF911F910F916B
:100D3000FF90EF90DF90CF906BCF4F925F926F92CA
:100D40007F928F929F92AF92BF92CF92DF92EF925B
:100D5000FF920F931F93CF93DF93EC016A017B0106
:100D6000B22E9A01AB01C701B6010E943418882344
:100D700019F060E772E027C026013701E89477F8A0
:100D80002FEF3FEF4FE75FE7C301B2010E94341836
:100D900081110DC02FEF3FEF4FE75FE7C301B201B5
:100DA0000E940D1618161CF464E772E00CC02FEFB9
:100DB0003FEF4FE75FE4C701B6010E9481171816A5
:100DC000A4F468E772E0CE01DF91CF911F910F91FB
:100DD000FF90EF90DF90CF90BF90AF909F908F905B
:100DE0007F906F905F904F90E2CE2FEF3FEF4FE7F5
:100DF0005FECC701B6010E940D1687FDE2CF20E02F
:100E000030E0A901C701B6010E940D1687FF09C095
:100E10006DE2CE01E3DE8C01F7FAF094F7F8F0947E
:100E200002C000E010E0A12C60E070E080E09FE3F1
:100E3000AB1441F020E030E040E251E40E94111692
:100E4000A394F6CF9B01AC01C701B6010E944715E0
:100E50006B017C010E947E162B013C010E94AA16A8
:100E60009B01AC01C701B6010E9446156B017C01D4
:100E70002AE0B301A201CE01CBDE080F191FBB206F
:100E800031F06AE272E0CE0192DE080F191F7B2C6E
:100E9000772039F120E030E040E251E4C701B601AB
:100EA0000E948C176B017C010E9479164B01AA24C9
:100EB00097FCA094BA2C2AE030E0B501A401CE0141
:100EC000F5DE080F191FC501B4010E94AC169B0185
:100ED000AC01C701B6010E9446156B017C017A94F2
:100EE000D7CFC801DF91CF911F910F91FF90EF9065
:100EF000DF90CF90BF90AF909F908F907F906F903A
:100F00005F904F90089519CF0F931F93CF93DF9366
:100F1000EC0113DF8C01CE0168DE800F911FDF91A1
:100F2000CF911F910F9108950895ADD0FDDFB1D9F4
:100F3000C0ECD3E040DA2097E9F322DCFBCF1F922C
:100F40000F920FB60F9211242F933F938F939F937D
:100F5000AF93BF938091FF0390910004A09101048F
:100F6000B09102043091FE0323E0230F2D3720F4CB
:100F70000196A11DB11D05C026E8230F0296A11DF3
:100F8000B11D2093FE038093FF0390930004A09370
:100F90000104B09302048091030490910404A09191
:100FA0000504B09106040196A11DB11D80930304B0
:100FB00090930404A0930504B0930604BF91AF91ED
:100FC0009F918F913F912F910F900FBE0F901F9087
:100FD00018953FB7F8948091030490910404A09170
:100FE0000504B091060426B5A89B05C02F3F19F053
:100FF0000196A11DB11D3FBF6627782F892F9A2F1B
:10100000620F711D811D911D42E0660F771F881FC1
:10101000991F4A95D1F708958F929F92AF92BF92F0
:10102000CF92DF92EF92FF926B017C01D2DF4B01F6
:101030005C01C114D104E104F104E1F086D0C9DF00
:10104000681979098A099B09683E734081059105F1
:1010500080F321E0C21AD108E108F10888EE880E79
:1010600083E0981EA11CB11CC114D104E104F10459
:1010700031F7DFCFFF90EF90DF90CF90BF90AF9030
:101080009F908F900895789484B5826084BD84B5D4
:10109000816084BD85B5826085BD85B5816085BD73
:1010A000EEE6F0E0808181608083E1E8F0E010828C
:1010B000808182608083808181608083E0E8F0E0CD
:1010C000808181608083E1EBF0E0808184608083B7
:1010D000E0EBF0E0808181608083E1E9F0E08081F5
:1010E00082608083808181608083E0E9F0E080819C
:1010F00081608083E1EAF0E080818260808380818A
:1011000081608083E0EAF0E0808181608083E1E2B9
:10111000F1E0808182608083808181608083E0E271
:10112000F1E0808181608083EAE7F0E08081846083
:1011300080838081826080838081816080838081E0
:10114000806880831092C1000895089580913704CB
:1011500090E020913804821B910908952091380471
:1011600080913704281750F4E22FF0E0E75CFB4F42
:10117000808190E02F5F2093380408958FEF9FEFD8
:101180000895E091380480913704E81730F4F0E0D6
:10119000E75CFB4F808190E008958FEF9FEF08950B
:1011A0000895CF92DF92EF92FF920F931F93CF9308
:1011B000DF937C01CB018A0120911304222389F063
:1011C000EB016B01C40ED51ECC15DD0561F06991F4
:1011D000D701ED91FC910190F081E02DC7011995A7
:1011E000F3CF642F8FD1C801DF91CF911F910F9161
:1011F000FF90EF90DF90CF900895CF93DF931F92F1
:10120000CDB7DEB76983209113042223D1F020915A
:101210001404203240F021E030E0FC0133832283CB
:1012200080E090E014C080911504E82FF0E0EA5EC1
:10123000FB4F998190838F5F8093150480931404F2
:1012400004C061E0CE0101965DD181E090E00F9095
:10125000DF91CF910895FC011382128248EE53E092
:1012600060E070E0448355836683778380E892E092
:10127000918380830895109238041092370410925D
:1012800015041092140481C081E0809313046093CC
:10129000360410921504109214040895F5CF0F939C
:1012A000062F21E04091140466E174E08091360439
:1012B000D2D01092150410921404109213040F91BE
:1012C00008958F929F92AF92BF92CF92DF92EF924A
:1012D000FF920F931F93CF93DF93EC01F62ED42E42
:1012E00048015901EE2009F1CFDF1E2D143008F01E
:1012F00013E01150B8F0E881F98128E0129FB001A5
:101300001124A501940104C056954795379527955A
:101310006A95D2F7CA01B9010190F081E02DCE01A2
:101320001995E7CF60E0CE01BADF4D2D413208F0CC
:1013300040E22C2D69E374E08F2D45D010923804E3
:1013400080933704DF91CF911F910F91FF90EF9021
:10135000DF90CF90BF90AF909F908F900895CF92E5
:10136000EF920F931F93C22EE12C00E010E0980142
:10137000A8DF1F910F91EF90CF90089521E0EFCF5C
:1013800061E08DCF87E094E066CF1092C60481E0E3
:101390008093C4041092C30461E084E10E94E514C8
:1013A00061E085E10E94E514E9EBF0E080818E7F49
:1013B000808380818D7F808388E48093B80085E47A
:1013C0008093BC000895413208F043C09091C60458
:1013D0009111FCCF91E09093C6042093C4042FEFA9
:1013E0002093590410929E04240F20939D049093FF
:1013F000C5049091C504880F892B8093C504809102
:10140000C304813061F41092C3048091C5048093B9
:10141000BB008091BC0083FDF8CF85EC01C085EE58
:101420008093BC008091C6048130E1F380919E04DA
:10143000841710F440919E042FE934E0FB01D90198
:101440008A2F821B841718F48D918193F9CF842FF2
:10145000089580E008950F93413208F04AC09091BA
:10146000C6049111FCCF92E09093C6040093C4048B
:101470009FEF9093590410929E0440939D04FB01AA
:101480006FE974E0DB019A2F961B941718F4919181
:101490009D93F9CF1092C5049091C504880F892BB4
:1014A0008093C5048091C304813061F41092C30419
:1014B0008091C5048093BB008091BC0083FDF8CF70
:1014C00085EC01C085EE8093BC00222321F0809141
:1014D000C6048230E1F3809159048F3F61F080911E
:1014E0005904803251F080915904803341F483E0F3
:1014F00007C081E005C080E003C082E001C084E055
:101500000F910895613298F42091C604243089F433
:1015100060937B04FC018DE794E0DC012A2F281BFB
:10152000261718F421912D93F9CF80E0089581E0DA
:10153000089582E0089585ED8093BC008091BC0001
:1015400084FDFCCF1092C604089585EC8093BC0006
:101550001092C60408951F920F920FB60F92112495
:101560000BB60F922F933F934F935F936F937F939D
:101570008F939F93AF93BF93EF93FF938091B900A5
:10158000887F803609F49DC070F5883209F45CC00C
:1015900090F4803109F455C038F4882309F4F3C07D
:1015A000883009F44EC0F2C0883109F44DC0803251
:1015B00009F45EC0EBC0803409F469C050F4803394
:1015C00009F456C0883309F0E1C080935904BDDFA7
:1015D000DDC0803509F44FC0883509F45DC088341A
:1015E00009F0D4C0D2C0883909F4C3C0A8F4883740
:1015F00009F467C038F4883609F463C0803709F409
:1016000060C0C4C0883809F4B4C0803909F45FC030
:10161000803809F0BBC05BC0803B09F482C038F45D
:10162000803A09F466C0883A09F47BC0AFC0803CB8
:1016300009F4A3C0883C09F4A0C0883B09F486C023
:10164000A5C08091C50410C090919E0480919D0416
:10165000981770F5E0919E0481E08E0F80939E04B0
:10166000F0E0E156FB4F80818093BB0085EC82C0A7
:10167000809359048AC0E0919E0481E08E0F80938C
:101680009E048091BB00F0E0E156FB4F8083909177
:101690009E0480919D046AC0E0919E0481E08E0FBB
:1016A00080939E048091BB00F0E0E156FB4F808365
:1016B0008091C404811169C081E08093C30484EAED
:1016C0005DC083E08093C60410925A04CFCF80910E
:1016D0005A04803208F04DC0E0915A0481E08E0F28
:1016E00080935A048091BB00F0E0E55AFB4F808361
:1016F000BDCF2BDF80915A04803230F4E0915A0440
:10170000F0E0E55AFB4F108260915A0470E0E091DE
:10171000BF04F091C0048BE594E0199510925A042F
:1017200035C084E08093C60410927C0410927B0440
:10173000E091C104F091C204199580917B0481115C
:1017400005C081E080937B0410927D04E0917C04CD
:1017500081E08E0F80937C04F0E0E358FB4F8081A2
:101760008093BB0090917C0480917B04981708F4CF
:101770007DCF85E88093BC0009C085EC8093BC00D8
:101780001092C60403C010925904D5DEFF91EF9168
:10179000BF91AF919F918F917F916F915F914F9189
:1017A0003F912F910F900BBE0F900FBE0F901F9087
:1017B0001895FC01168217821086118612861386F0
:1017C0001486158616861786108A118A0895CF9278
:1017D000DF92EF92FF920F931F93FC01428B538B8A
:1017E000648B758B068B178B208F318FC28ED38EB7
:1017F000E48EF58E1F910F91FF90EF90DF90CF90C8
:1018000008951F93CF93DF931F92CDB7DEB7162FA6
:1018100063E570E087E094E0498340DD612F87E075
:1018200094E0EBDC4981642F87E094E0E6DC87E01C
:1018300094E00F90DF91CF911F91A2CDEF92FF9294
:101840000F931F93CF93DF931F92CDB7DEB77C0129
:10185000062F142F48E06DE22983D3DF4BE061E3CC
:10186000C701CFDF402F6EE1C701CBDF412F6FE112
:10187000C701C7DF2981422F60E2C7010F90DF91C6
:10188000CF911F910F91FF90EF90BBCF0F931F93BC
:10189000CF93DF9300D01F92CDB7DEB7162F63E54D
:1018A00070E087E094E02B833C8349835A83F6DC25
:1018B000612F87E094E0A1DC87E094E061DD63E5DF
:1018C00070E087E094E0EADC49815A8163E570E0EA
:1018D00087E094E053DD2B81022F3C81132F87E0BA
:1018E00094E034DC892B39F087E094E037DCF801B0
:1018F00081938F01F4CF87E094E00F900F900F90C9
:101900000F90DF91CF911F910F913ACD0F931F93BD
:10191000CF93DF9300D000D0CDB7DEB78C019C0110
:1019200046E050E062E3B2DFF801438150E0542F1B
:1019300044278281482B658170E0762F6627848159
:10194000682B218130E0322F22278081282B3A8397
:1019500029835C834B837E836D833A815C817E81A6
:1019600080E090E026960FB6F894DEBF0FBECDBFA4
:10197000DF91CF911F910F9108952F923F924F9237
:101980005F926F927F928F929F92AF92BF92CF920F
:10199000DF92EF92FF920F931F93CF93DF9300D0CC
:1019A00000D0CDB7DEB71C018B01CB01AFDF29839F
:1019B0003A834B835C836D837E836B817C81882734
:1019C00077FD8095982F0E94AC1620E030E040E82B
:1019D0005BE30E948C17F80126893789408D518D71
:1019E0000E9447154B015C016D817E81882777FD40
:1019F0008095982F0E94AC1620E030E040E85BE331
:101A00000E948C17F801228D338D448D558D0E94D4
:101A100047156B017C0169817A81882777FD809564
:101A2000982F0E94AC1620E030E040E85BE30E9473
:101A30008C17F80122893389448955890E944715FA
:101A400020E030E040E05FE30E948C172B013C0176
:101A500020E030E040E05FE3F80166817781808537
:101A600091850E948C179B01AC01C301B2010E94B9
:101A70004715F1016083718382839383F801668344
:101A800077838087918720E030E040E05FE3C50105
:101A9000B4010E948C174B015C0120E030E040E073
:101AA0005FE3F80162857385848595850E948C17B4
:101AB0009B01AC01C501B401EAD7F10164837583D0
:101AC00086839783F801628773878487958720E0F0
:101AD00030E040E05FE3C701B6010E948C176B0164
:101AE0007C0120E030E040E05FE3F8016685778527
:101AF000808991890E948C179B01AC01C701B601B6
:101B0000C6D7F1016087718782879387F80166875E
:101B10007787808B918BC10126960FB6F894DEBF34
:101B20000FBECDBFDF91CF911F910F91FF90EF902E
:101B3000DF90CF90BF90AF909F908F907F906F90ED
:101B40005F904F903F902F9008954F925F926F92C9
:101B50007F928F929F92AF92BF92CF92DF92EF923D
:101B6000FF92CF93DF93CDB7DEB768970FB6F894A7
:101B7000DEBF0FBECDBFBC01CE010196FEDE898067
:101B80009A80AB80BC80CD80DE80EF80F884698550
:101B90007A858B859C859B01AC010E948C172B015B
:101BA0003C01A7019601C701B6010E948C17A30151
:101BB00092016DD70E94F3179B01AC01C501B401DE
:101BC000D9D76D8B7E8B8F8B988FA5019401C50122
:101BD000B4010E948C17A301920159D70E94F317F8
:101BE0009B01AC01C701B601C5D76B017C0120E0A8
:101BF00030E044E353E46D897E898F89988D0E949B
:101C00008C172BED3FE049E450E40E941116B62EEC
:101C1000AB01BC014D875E876F87788B20E030E099
:101C200044E353E4C701B6010E948C172BED3FE05B
:101C300049E450E4F6D7E62F462F572FBC01498BD5
:101C40005A8B6B8B7C8B2B2D3E854F8558896E2F45
:101C50007A898B899C8968960FB6F894DEBF0FBE8F
:101C6000CDBFDF91CF91FF90EF90DF90CF90BF90ED
:101C7000AF909F908F907F906F905F904F9008955E
:101C80004F925F926F927F928F929F92AF92BF928C
:101C9000CF92DF92EF92FF920F931F93CF93DF9338
:101CA000CDB7DEB760970FB6F894DEBF0FBECDBFDD
:101CB0004C015B016EE872E081E693E00E94ED0565
:101CC00068EE73E080E090E0A7D960EA72E081E618
:101CD00093E00E94ED0568EE73E080E090E09CD90F
:101CE00063EA72E081E693E00E94F80568EE73E033
:101CF00080E090E091D900E010E01D861E861F86EE
:101D0000188AC12CD12C7601260137010A151B0532
:101D10005CF5B401CE01019630DE29813A814B8118
:101D20005C81C301B201B3D62B013C012D813E8100
:101D30004F815885C701B601AAD66B017C01298560
:101D40003A854B855C856D857E858F8598899FD684
:101D50006D877E878F87988B64E670E080E090E0E7
:101D60005BD90F5F1F4FD2CF66EA72E081E693E046
:101D70000E94F8056AEB72E081E693E00E94ED05AF
:101D8000B501882777FD8095982FE6D74B015C0138
:101D90009B01AC01C301B20144D720E030E04AE727
:101DA00054E40E948C17AB01BC0125E030E081E6D1
:101DB00093E0A9D86EEB72E081E693E00E94ED0516
:101DC000A5019401C701B6012CD720E030E04AE715
:101DD00054E40E948C17AB01BC0125E030E081E6A1
:101DE00093E091D863EC72E081E693E00E94ED0508
:101DF000A50194016D857E858F85988912D720E095
:101E000030E04AE754E40E948C17AB01BC0125E0A6
:101E100030E081E693E078D860ED77E080E090E014
:101E200060960FB6F894DEBF0FBECDBFDF91CF91A5
:101E30001F910F91FF90EF90DF90CF90BF90AF90E8
:101E40009F908F907F906F905F904F90E5C8FC01BE
:101E500016861786108A118A1286138614861586AE
:101E6000168217821086118608950F931F93CF93C1
:101E7000DF9300D01F92CDB7DEB7162F69E670E072
:101E800087E094E02B833C8349835A8307DA612FF0
:101E900087E094E0B2D987E094E072DA69E670E016
:101EA00087E094E0FBD949815A8169E670E087E0D8
:101EB00094E064DA2B81022F3C81132F87E094E0B9
:101EC00045D9892B39F087E094E048D9F80181930E
:101ED0008F01F4CF87E094E00F900F900F900F9058
:101EE000DF91CF911F910F914BCA0F931F93CF9307
:101EF000DF9300D000D0CDB7DEB78C019C0146E067
:101F000050E068EAB2DFF801438150E0542F4427E3
:101F10008281482B658170E0762F66278481682B4B
:101F2000218130E0322F22278081282B3A83298398
:101F30005C834B837E836D833A815C817E8180E00C
:101F400090E026960FB6F894DEBF0FBECDBFDF91AE
:101F5000CF911F910F9108952F923F924F925F92D0
:101F60006F927F928F929F92AF92BF92CF92DF92A9
:101F7000EF92FF920F931F93CF93DF9300D000D087
:101F8000CDB7DEB71C018B01CB01AFDF29833A83CC
:101F90004B835C836D837E836B817C81882777FD97
:101FA0008095982FD9D629E23CE54FE05CE3B4D781
:101FB000F80126893789408D518D69D54B015C0127
:101FC0006D817E81882777FD8095982FC5D629E27F
:101FD0003CE54FE05CE3A0D7F801228D338D448DC2
:101FE000558D55D56B017C0169817A81882777FDF4
:101FF0008095982FB1D629E23CE54FE05CE38CD781
:10200000F801228933894489558941D52AE939E97A
:1020100049E95EE381D72B013C0123E333E343E34A
:102020005FE3F801668177818085918575D79B0193
:10203000AC01C301B2012BD5F101608371838283AE
:102040009383F80166837783808791872AE939E94A
:1020500049E95EE3C501B4015FD74B015C0123E3AD
:1020600033E343E35FE3F8016285738584859585F7
:1020700053D79B01AC01C501B40109D5F1016483BB
:10208000758386839783F801628773878487958732
:102090002AE939E949E95EE3C701B6013DD76B0199
:1020A0007C0123E333E343E35FE3F801668577854F
:1020B0008089918931D79B01AC01C701B601E7D472
:1020C000F1016087718782879387F8016687778738
:1020D000808B918BC10126960FB6F894DEBF0FBEA0
:1020E000CDBFDF91CF911F910F91FF90EF90DF90C7
:1020F000CF90BF90AF909F908F907F906F905F90A8
:102100004F903F902F9008954F925F926F927F92E1
:102110008F929F92AF92BF92CF92DF92EF92FF92F7
:102120000F931F93CF93DF93CDB7DEB760970FB6B2
:10213000F894DEBF0FBECDBF4C015B016EE872E0CC
:1021400081E693E00E94ED0568EE73E080E090E0A8
:102150000E940C0860EA72E081E693E00E94ED05BF
:1021600068EE73E080E090E00E940C0863EA72E0A1
:1021700081E693E00E94F80568EE73E080E090E06D
:102180000E940C0800E010E01D861E861F86188A3B
:10219000C12CD12C7601260137010A151B0564F5E7
:1021A000B401CE010196D8DE29813A814B815C8150
:1021B000C301B2016CD42B013C012D813E814F81C2
:1021C0005885C701B60163D46B017C0129853A8526
:1021D0004B855C856D857E858F85988958D46D8704
:1021E0007E878F87988B64E670E080E090E00E94A5
:1021F0000C080F5F1F4FD1CF62ED72E081E693E0D4
:102200000E94F8056AEB72E081E693E00E94ED051A
:10221000B501882777FD8095982F9ED54B015C01ED
:102220009B01AC01C301B201FCD4AB01BC0125E0B0
:1022300030E081E693E00E9483076EEB72E081E676
:1022400093E00E94ED05A5019401C701B601E9D410
:10225000AB01BC0125E030E081E693E00E948307FA
:1022600063EC72E081E693E00E94ED05A501940124
:102270006D857E858F859889D4D4AB01BC0125E01E
:1022800030E081E693E00E94840760ED77E080E033
:1022900090E060960FB6F894DEBF0FBECDBFDF9121
:1022A000CF911F910F91FF90EF90DF90CF90BF9053
:1022B000AF909F908F907F906F905F904F900C9415
:1022C0000C08FC01128A138A148A158A168617864E
:1022D000108A118A128613861486158608950F9324
:1022E0001F93CF93DF9300D01F92CDB7DEB7162F89
:1022F0006EE170E087E094E02B833C8349835A834E
:102300000E944E09612F87E094E00E94FD0887E05B
:1023100094E036D86EE170E087E094E00E944E09C8
:1023200049815A816EE170E087E094E027D82B81E3
:10233000022F3C81132F87E094E00E94A608892B8E
:1023400041F087E094E00E94AE08F80181938F018C
:10235000F2CF87E094E00F900F900F900F90DF91F5
:10236000CF911F910F910CC8CF92DF92EF92FF9205
:102370000F931F93CF93DF9300D000D0CDB7DEB77C
:102380008C019C0146E050E063E0A9DFF801E580A4
:10239000F12CFE2CEE248481E82A638170E0762FF4
:1023A00066278281682B882777FD8095982FD4D463
:1023B000F801228D338D448D558D68D39AD4D62E55
:1023C000C72EF801618170E0762F66278081682B27
:1023D000882777FD8095982FBFD4F8012689378903
:1023E000408D518D53D385D47A8369838D2D9C2D57
:1023F0009C838B83FE82ED82262F3A814D2D5C815A
:102400006E2D7E8180E090E026960FB6F894DEBFB8
:102410000FBECDBFDF91CF911F910F91FF90EF9035
:10242000DF90CF9008952F923F924F925F926F92DC
:102430007F928F929F92AF92BF92CF92DF92EF9254
:10244000FF920F931F93CF93DF9300D000D0CDB7AF
:10245000DEB71C018B01CB0187DF29833A834B83D5
:102460005C836D837E83F801C680D780E084F1842D
:102470006B817C81882777FD8095982F6DD4A7018B
:1024800096014AD52B013C016D817E81882777FD1D
:102490008095982F61D4A70196013ED54B015C0130
:1024A00069817A81882777FD8095982F55D4A70177
:1024B000960132D52DEC3CEC4CEC5DE32DD56B0157
:1024C0007C0126E636E646E65FE3F8016285738521
:1024D0008485958521D59B01AC01C701B601D7D272
:1024E000F1016083718382839383F801628773872C
:1024F000848795872DEC3CEC4CEC5DE3C301B20185
:102500000BD56B017C0126E636E646E65FE3F80173
:102510006685778580899189FFD49B01AC01C701CD
:10252000B601B5D2F1016483758386839783F80180
:1025300066877787808B918B2DEC3CEC4CEC5DE3D0
:10254000C501B401E9D46B017C0126E636E646E616
:102550005FE3F8016289738984899589DDD49B01E1
:10256000AC01C701B60193D2F10160877187828700
:102570009387F801628B738B848B958BC1012696B0
:102580000FB6F894DEBF0FBECDBFDF91CF911F9184
:102590000F91FF90EF90DF90CF90BF90AF909F9002
:1025A0008F907F906F905F904F903F902F90089505
:1025B000CF92DF92EF92FF920F931F93CF93DF930F
:1025C0006C018B017A01EC01C853DB4F888187FFD6
:1025D00004C0FB011182108223C02CE02C9DC0019D
:1025E0002D9D900D11242881AC01420F511D27FD16
:1025F0005A952091C70430E0421753078CF4288184
:10260000AC01420F511D27FD5A959A01FA01EE0FB8
:10261000FF1FE20FF31FE453FB4F208126FD19C07B
:1026200088818F5F88838CE08C9D90018D9D300D1B
:1026300011248881A901480F511D87FD5A95809169
:10264000C70490E048175907ACF488818C3034F106
:1026500011C02881820F911D27FD9A95FC01EE0F74
:10266000FF1FE80FF91FE453FB4F808160E08F7379
:10267000ACD1D6CFF80180819181049680349C49F9
:1026800018F480E49CE904C0F801808191810496EB
:10269000F701918380838FEF888340C0F8018081A8
:1026A00091814881B901640F711D47FD7A95AB0195
:1026B000FB01EE0FFF1FE40FF51FE453FB4F4181B9
:1026C0005281840F951FF701918380838881A9012E
:1026D000480F511D87FD5A95FA01EE0FFF1FE40FB9
:1026E000F51FE453FB4F808186FF18C08881280FB7
:1026F000311D87FD3A95F901EE0FFF1FE20FF31F21
:10270000E453FB4F808161E08F73DF91CF911F9184
:102710000F91FF90EF90DF90CF9057C1DF91CF9155
:102720001F910F91FF90EF90DF90CF9008951F922F
:102730000F920FB60F9211240BB60F922F933F9367
:102740004F935F936F937F938F939F93AF93BF93B9
:10275000EF93FF9348E850E064E870E081E090E098
:1027600027DFFF91EF91BF91AF919F918F917F9163
:102770006F915F914F913F912F910F900BBE0F90F2
:102780000FBE0F901F9018951F920F920FB60F92C9
:1027900011240BB60F922F933F934F935F936F9338
:1027A0007F938F939F93AF93BF93EF93FF9348E9EA
:1027B00050E064E970E082E090E0FADEFF91EF9192
:1027C000BF91AF919F918F917F916F915F914F9149
:1027D0003F912F910F900BBE0F900FBE0F901F9047
:1027E00018951F920F920FB60F9211240BB60F92ED
:1027F0002F933F934F935F936F937F938F939F9309
:10280000AF93BF93EF93FF9348EA50E064EA70E020
:1028100083E090E0CDDEFF91EF91BF91AF919F916A
:102820008F917F916F915F914F913F912F910F9079
:102830000BBE0F900FBE0F901F9018951F920F9216
:102840000FB60F9211240BB60F922F933F934F9315
:102850005F936F937F938F939F93AF93BF93EF9308
:10286000FF9348E251E064E271E080E090E0A0DE96
:10287000FF91EF91BF91AF919F918F917F916F9158
:102880005F914F913F912F910F900BBE0F900FBE14
:102890000F901F9018952091C7042033A0F431E0C9
:1028A000320F3093C704FC012083822F90E0FC019B
:1028B000EE0FFF1FE80FF91FE453FB4F88EB9BE07F
:1028C0009283818308952FEFFC01208308951F9246
:1028D0000F920FB60F9211240BB60F922F933F93C6
:1028E0004F935F936F937F938F939F93AF93BF9318
:1028F000EF93FF93E0915C05F0915D051995FF91D1
:10290000EF91BF91AF919F918F917F916F915F9167
:102910004F913F912F910F900BBE0F900FBE0F90D4
:102920001F90189590E0FC013197E231F10508F015
:102930004BC0EE58FF4FA0C0809180008F7703C03E
:10294000809180008F7D8093800008958091800029
:10295000877FF9CF84B58F7702C084B58F7D84BD22
:1029600008958091B0008F7703C08091B0008F7D73
:102970008093B0000895809190008F7707C0809178
:1029800090008F7D03C080919000877F809390009E
:1029900008958091A0008F7707C08091A0008F7D5F
:1029A00003C08091A000877F8093A000089580914C
:1029B00020018F7707C0809120018F7D03C0809117
:1029C0002001877F8093200108950F931F93CF9359
:1029D000DF931F92CDB7DEB7282F30E0F901EA5C14
:1029E000FE4F8491F901E458FE4F1491F901EE5322
:1029F000FE4F04910023C1F0882319F0698392DF10
:102A00006981E02FF0E0EE0FFF1FE85FFD4FA59119
:102A1000B4919FB7F8948C91611103C010958123F4
:102A200001C0812B8C939FBF0F90DF91CF911F919D
:102A30000F910895A1E21A2EAA1BBB1BFD010DC028
:102A4000AA1FBB1FEE1FFF1FA217B307E407F5075E
:102A500020F0A21BB30BE40BF50B661F771F881F3A
:102A6000991F1A9469F760957095809590959B01D0
:102A7000AC01BD01CF010895EE0FFF1F0590F49149
:102A8000E02D19940790F691E02D19945058BB272A
:102A9000AA270ED0FCC1EDD130F0F2D120F031F4F4
:102AA0009F3F11F41EF4BDC10EF4E095E7FBB3C1E6
:102AB000E92FFED180F3BA176207730784079507E1
:102AC00018F071F49EF516C20EF4E0950B2EBA2F95
:102AD000A02D0B01B90190010C01CA01A001112424
:102AE000FF27591B99F0593F50F4503E68F11A16D0
:102AF000F040A22F232F342F4427585FF3CF469561
:102B000037952795A795F0405395C9F77EF41F1682
:102B1000BA0B620B730B840BBAF09150A1F0FF0F4C
:102B2000BB1F661F771F881FC2F70EC0BA0F621F38
:102B3000731F841F48F4879577956795B795F79528
:102B40009E3F08F0B3CF9395880F08F09927EE0FBA
:102B50009795879508958DD158F080E891E009F414
:102B60009EEF8ED128F040E851E059F45EEF09C0A5
:102B700058C1C0C1E92FE0789BD168F3092E052A1E
:102B8000C1F3261737074807590738F00E2E07F804
:102B9000E02569F0E025E0640AC0EF6307F80094DF
:102BA00007FADB01B9019D01DC01CA01AD01EF9318
:102BB00047D06DD10AD05F91552331F02BED3FE026
:102BC00049E450FD49EC63CF0895DF93DD27B92F29
:102BD000BF7740E85FE31616170648075B0710F457
:102BE000D92F93D19F938F937F936F933AD2E8E03D
:102BF000F1E01AD14CD12F913F914F915F9198D133
:102C0000DD2349F09058A2EA2AED3FE049EC5FE36A
:102C1000D0785D274DDFDF913AC1D9D008F481E04B
:102C200008950CD034C12CD140F023D130F021F4E0
:102C30005F3F19F0F0C051115EC1F3C039D198F374
:102C40009923C9F35523B1F3951B550BBB27AA272D
:102C500062177307840738F09F5F5F4F220F331F9F
:102C6000441FAA1FA9F333D00E2E3AF0E0E830D06B
:102C700091505040E695001CCAF729D0FE2F27D06E
:102C8000660F771F881FBB1F261737074807AB073C
:102C9000B0E809F0BB0B802DBF01FF2793585F4FB1
:102CA0002AF09E3F510568F0B6C025C15F3FECF3A6
:102CB000983EDCF3869577956795B795F7959F5F76
:102CC000C9F7880F911D9695879597F90895E1E0CA
:102CD000660F771F881FBB1F621773078407BA0729
:102CE00020F0621B730B840BBA0BEE1F88F7E09584
:102CF000089504D06894B111FEC00895E1D088F021
:102D00009F5790F0B92F9927B751A0F0D1F0660FD7
:102D1000771F881F991F1AF0BA95C9F712C0B130F2
:102D200081F0E8D0B1E00895E5C0672F782F8827BB
:102D3000B85F39F0B93FCCF3869577956795B39531
:102D4000D9F73EF490958095709561957F4F8F4FA0
:102D50009F4F0895E89409C097FB3EF490958095A5
:102D6000709561957F4F8F4F9F4F9923A9F0F92F51
:102D700096E9BB279395F695879577956795B795CF
:102D8000F111F8CFFAF4BB0F11F460FF1BC06F5FB5
:102D90007F4F8F4F9F4F16C0882311F096E911C0C7
:102DA000772321F09EE8872F762F05C0662371F0E8
:102DB00096E8862F70E060E02AF09A95660F771FFC
:102DC000881FDAF7880F9695879597F90895990FD8
:102DD0000008550FAA0BE0E8FEEF16161706E807E5
:102DE000F907C0F012161306E407F50798F0621B06
:102DF000730B840B950B39F40A2661F0232B242BDB
:102E0000252B21F408950A2609F4A140A6958FEFF9
:102E1000811D811D089597F99F6780E870E060E04B
:102E200008959FEF80EC0895DF93CF931F930F9346
:102E3000FF92EF92DF927B018C01689405C0DA2E3D
:102E4000EF0176D0FE01E894A59125913591459149
:102E50005591AEF3EF012CDEFE019701A801DA9443
:102E600079F7DF90EF90FF900F911F91CF91DF9155
:102E7000089500240A9416161706180609060895E0
:102E800000240A9412161306140605060895092E46
:102E90000394000C11F4882352F0BB0F40F4BF2BB5
:102EA00011F460FF04C06F5F7F4F8F4F9F4F0895F5
:102EB00057FD9058440F551F59F05F3F71F04795EB
:102EC000880F97FB991F61F09F3F79F087950895D0
:102ED000121613061406551FF2CF4695F1DF08C0EF
:102EE000161617061806991FF1CF8695710561050C
:102EF00008940895E894BB2766277727CB0197F9B4
:102F0000089565DF08F48FEF08959B01AC0160E040
:102F100070E080E89FE385CE0BD0B9CFAADF28F020
:102F2000AFDF18F0952309F076CF7BCF1124E3CFE4
:102F3000BFDFA0F3959FD1F3950F50E0551F629F1F
:102F4000F001729FBB27F00DB11D639FAA27F00D02
:102F5000B11DAA1F649F6627B00DA11D661F829F29
:102F60002227B00DA11D621F739FB00DA11D621F0E
:102F7000839FA00D611D221F749F3327A00D611D2B
:102F8000231F849F600D211D822F762F6A2F11240D
:102F90009F5750408AF0E1F088234AF0EE0FFF1F60
:102FA000BB1F661F771F881F91505040A9F79E3F97
:102FB000510570F030CF9FCF5F3FECF3983EDCF3CC
:102FC000869577956795B795F795E7959F5FC1F7D4
:102FD000FE2B880F911D9695879597F9089511F40A
:102FE0000EF41FCF45C06CDFD0F39923D9F3CEF395
:102FF0009F57550B87FF4AD00024A0E640EA900176
:1030000080585695979528F4805C660F771F881F27
:1030100020F026173707480730F4621B730B840B28
:10302000202931294A2BA69517940794202531256C
:103030004A2758F7660F771F881F20F02617370793
:10304000480730F4620B730B840B200D311D411DBA
:10305000A09581F7B901842F9158880F969587958F
:1030600008959B01AC0158CFB2DE880B990B0895EF
:103070009F3F31F0915020F4879577956795B795EC
:10308000880F911D9695879597F908959150504016
:0E309000660F771F881FD2F70895F894FFCFC0
:10309E00010000000A526561647900416363656C4A
:1030AE0065726F6D657465722052656164792E006C
:1030BE004779726F2052656164792E00436F6D708F
:1030CE006173732052656164792E00526F6C6C3A95
:1030DE0020000950697463683A2000095961773AF3
:1030EE0020000948656164696E673A20000000009F
:1030FE00003E04AF059303AC039E031D040D0A00AE
:10310E006E616E00696E66006F76660000000000EC
:10311E00FD08D108A608AE08C108D00842004361D8
:10312E006C6962726174696F6E20696E3A20330049
:10313E00203200203100416363656C204F66667358
:10314E00657420286D67293A2000583A20002059CE
:10315E003A2000205A3A2000307830303A200030A1
:10316E0078004779726F204F666673657420286405
:06317E007073293A2000E5
:00000001FF
