:100000000C944E010C947F010C947F010C947F01A1
:100010000C947F010C947F010C947F010C947F0160
:100020000C947F010C947F010C947F010C947F0150
:100030000C947F010C947F010C947F010C947F0140
:100040000C947F010C94AD0D0C947F010C947F01F6
:100050000C947F010C947F010C947F010C9421027D
:100060000C947F010C9421050C9457050C947F018E
:100070000C947F010C947F010C947F010C947F0100
:100080000C94DB0D0C947F010C947F010C947F0188
:100090000C947F010C947F010C947F010C94DC087C
:1000A0000C947F010C947F010C94090E0C947F0139
:1000B0000C947F010C947F010C947F010C94370EFB
:1000C0000C947F010C947F010C947F010C947F01B0
:1000D0000C947F010C947F010C947F010C947F01A0
:1000E0000C947F0140124312321236123C127A12E3
:1000F00047124B125112551259125F1263126712B6
:100100007A126D12711275120C94C8050C945F125C
:100110000C9459120C9432120C94D4050C94F605DC
:100120000C9480070C9475120C947A120C94401263
:100130000C9476060C942C070C9481050C948B057A
:100140000C9451120C944B120C946D120C942407C5
:100150000C9409020C943C120C9443120C94361229
:100160000C9440070C9463120C9455120C941B03CE
:100170000C944F070C9454060C94E2050C9447120F
:100180000C94FB070C9450070C9471120C9467129A
:1001900000000A0B02090C0D0E0807030401000001
:1001A000000000000000000000000000000000004F
:1001B000000000000000000000000000121110000C
:1001C000000000000000000000000000000000002F
:1001D000000000000000010210202008081020404C
:1001E00010204080020102010804020101020408FB
:1001F0001020408080402010080402018004020189
:1002000080402010080402010804020101020408D1
:1002100010204080010204081020408005050505DB
:10022000070508080808020202020A0A080804046E
:10023000040401010101010101010303030303039C
:100240000303040707070C0C0C0C0C0C0C0C02022B
:10025000020206060606060606060B0B0B0B0B0B28
:100260000B0B00002200250028002B002E0031007F
:10027000340002010000050108010B01000021000B
:10028000240027002A002D00300033000101000067
:10029000040107010A0109028B05FB0711241FBE97
:1002A000CFEFD1E2DEBFCDBF00E00CBF12E0A0E097
:1002B000B2E0E6E9FBE200E00BBF02C007900D925E
:1002C000AE3AB107D9F714E0AEEAB2E001C01D9230
:1002D000A13FB107E1F711E0CEE4D1E000E006C0B4
:1002E00021970109802FFE010E94B215CB34D1075E
:1002F00080E00807A9F70E94B9050C9428130C9414
:1003000000006AE070E083EF92E00E942F0F69E046
:1003100070E080EF92E00E942F0F66E070E08DEEBB
:1003200092E00E942F0F65E070E08AEE92E00E945A
:100330002F0F68EE73E080E090E00E94900268E585
:1003400072E083EF92E00E946A0F68E572E080EF4E
:1003500092E00E946A0F68E572E08DEE92E00E94E2
:100360006A0F68E572E08AEE92E00E946A0F68EE1A
:1003700073E080E090E00C949002CF92DF92EF92D5
:10038000FF920F931F9326E040E855E260E070E093
:100390008FEF92E00E94BE0660E072E08FEF92E085
:1003A0000E9458038CE993E00E94BF0767E072E067
:1003B0008FEF92E00E94750320E040E060E08CEC5B
:1003C00092E00E94560AC12CD12C76019701860139
:1003D000B701A6018CEC92E00E941B0A68E270E073
:1003E0008CEC92E00E94EE0B6CE172E08FEF92E0F9
:1003F0000E94750368E270E08EEA92E00E943F116D
:100400001F910F91FF90EF90DF90CF900C9481019E
:10041000089583EF92E00E94650E80EF92E00E94C3
:10042000650E8DEE92E00E94650E8AEE92E00E94CB
:10043000650E8CEC92E00E940D0A8EEA92E00C941C
:10044000C60F1F920F920FB60F9211242F933F9356
:100450008F939F93AF93BF938091F7029091F8028F
:10046000A091F902B091FA023091F60223E0230F35
:100470002D3720F40196A11DB11D05C026E8230FDC
:100480000296A11DB11D2093F6028093F70290936E
:10049000F802A093F902B093FA028091FB029091C6
:1004A000FC02A091FD02B091FE020196A11DB11DBA
:1004B0008093FB029093FC02A093FD02B093FE0296
:1004C000BF91AF919F918F913F912F910F900FBE50
:1004D0000F901F9018953FB7F8948091FB02909170
:1004E000FC02A091FD02B091FE0226B5A89B05C0BA
:1004F0002F3F19F00196A11DB11D3FBFBA2FA92FA3
:10050000982F8827820F911DA11DB11DBC01CD011F
:1005100042E0660F771F881F991F4A95D1F708950B
:10052000CF92DF92EF92FF92CF93DF936B017C012A
:100530000E946B02EB01C114D104E104F10489F0C3
:100540000E941A030E946B026C1B7D0B683E734075
:1005500090F381E0C81AD108E108F108C851DC4FD6
:10056000EACFDF91CF91FF90EF90DF90CF90089589
:10057000789484B5826084BD84B5816084BD85B57E
:10058000826085BD85B5816085BDEEE6F0E0808145
:1005900081608083E1E8F0E0108280818260808366
:1005A000808181608083E0E8F0E0808181608083E9
:1005B000E1EBF0E0808184608083E0EBF0E080811B
:1005C00081608083E1E9F0E08081826080838081C6
:1005D00081608083E0E9F0E0808181608083E1EAEE
:1005E000F0E0808182608083808181608083E0EAA6
:1005F000F0E0808181608083E1E2F1E080818260CF
:100600008083808181608083E0E2F1E0808181608D
:100610008083EAE7F0E0808184608083808182606B
:100620008083808181608083808180688083109254
:10063000C10008950895CF92DF92EF92FF920F9339
:100640001F93CF93DF936C01EB017B01E40EF51E4A
:1006500000E010E0CE15DF0561F06991D601ED9163
:10066000FC910190F081E02DC6011995080F191F2A
:10067000F1CFC801DF91CF911F910F91FF90EF90C3
:10068000DF90CF9008956115710579F0FB0101901D
:100690000020E9F73197AF01461B570BDC01ED91C4
:1006A000FC910280F381E02D199480E090E00895A0
:1006B0000C944303DC01ED91FC910190F081E02D5D
:1006C00019940F931F93CF93DF93EC016DE00E9479
:1006D0005A038C016AE0CE010E945A03800F911FD9
:1006E000DF91CF911F910F9108950F931F93CF9397
:1006F000DF93EC010E9443038C01CE010E94610351
:10070000800F911FDF91CF911F910F9108958F92CC
:100710009F92AF92BF92CF92DF92EF92FF920F9390
:100720001F93CF93DF93CDB7DEB7A1970FB6F894A1
:10073000DEBF0FBECDBF6C01142FE52FCB01022F02
:1007400019A2223008F40AE07E0121E2E20EF11C37
:10075000802E912CA12CB12C612F7E2FA50194010C
:100760000E947115029F1019112481E0E81AF10806
:100770001A3014F4105D01C0195CF7011083122FB8
:10078000E32FCA01232B242B252B31F7B701C601F8
:100790000E944303A1960FB6F894DEBF0FBECDBFF3
:1007A000DF91CF911F910F91FF90EF90DF90CF904D
:1007B000BF90AF909F908F900895CF92DF92EF926D
:1007C000FF920F931F93CF93DF93EC016A017B019C
:1007D0002115310579F4E881F9810190F081E02D4E
:1007E000642FDF91CF911F910F91FF90EF90DF90D9
:1007F000CF9019942A303105E9F477FF1AC06DE2E1
:100800000E945A038C0144275527BA014C195D09EF
:100810006E097F092AE0CE010E948703800F911F95
:10082000DF91CF911F910F91FF90EF90DF90CF90CC
:1008300008952AE0B701A601CE01DF91CF911F9163
:100840000F91FF90EF90DF90CF900C9487034F9221
:100850005F926F927F928F929F92AF92BF92CF9250
:10086000DF92EF92FF92CF93DF93EC016A017B015D
:10087000B22E9A01AB01C701B6010E94461588232A
:1008800019F068E272E027C026013701E89477F892
:100890002FEF3FEF4FE75FE7C301B2010E9446151C
:1008A00081110DC02FEF3FEF4FE75FE7C301B201AA
:1008B0000E94901318161CF46CE272E00CC02FEF2B
:1008C0003FEF4FE75FE4C701B6010E94DF1418163F
:1008D0009CF460E372E0CE01DF91CF91FF90EF9046
:1008E000DF90CF90BF90AF909F908F907F906F9050
:1008F0005F904F900C9443032FEF3FEF4FE75FEC77
:10090000C701B6010E94901387FDE3CF20E030E0DD
:10091000A901C701B6010E94901387FF0AC06DE2CA
:10092000CE010E945A034C01F7FAF094F7F8F094C4
:1009300002C0812C912CA12C60E070E080E09FE34C
:10094000AB1441F020E030E040E251E40E94941307
:10095000A394F6CF9B01AC01C701B6010E942C13F2
:100960002B013C010E9401146B017C010E942D149B
:100970009B01AC01C301B2010E942B132B013C016E
:100980002AE0B701A601CE010E9487037C01E80C92
:10099000F91CBB2039F066E272E0CE010E944303ED
:1009A000E80EF91EDB2CDD2041F120E030E040E2D2
:1009B00051E4C301B2010E94E3142B013C010E94E7
:1009C000FC134B01AA2497FCA094BA2C2AE030E037
:1009D000B501A401CE010E94DD03E80EF91EC50198
:1009E000B4010E942F149B01AC01C301B2010E940B
:1009F0002B132B013C01DA94D6CFC701DF91CF91A5
:100A0000FF90EF90DF90CF90BF90AF909F908F902E
:100A10007F906F905F904F9008950C9427040F93F0
:100A20001F93CF93DF93EC010E9427048C01CE012A
:100A30000E946103800F911FDF91CF911F910F9151
:100A400008951F920F920FB60F9211240BB60F92BA
:100A50002F938F939F93EF93FF93E0910F03F09168
:100A600010038081E0911503F091160382FD12C0FE
:100A70009081809118038F5F8F73209119038217E3
:100A800051F0E0911803F0E0E150FD4F958F809315
:100A9000180301C08081FF91EF919F918F912F9159
:100AA0000F900BBE0F900FBE0F901F9018951F92C6
:100AB0000F920FB60F9211240BB60F922F933F9304
:100AC0004F935F936F937F938F939F93AF93BF9356
:100AD000EF93FF938FEF92E00E943306FF91EF9127
:100AE000BF91AF919F918F917F916F915F914F9146
:100AF0003F912F910F900BBE0F900FBE0F901F9044
:100B000018958FEF92E00E94C80521E0892B09F427
:100B100020E0822F0895EFEFF2E01382128288EE38
:100B200093E0A0E0B0E084839583A683B78388E355
:100B300092E09183808385EC90E09587848784ECB4
:100B400090E09787868780EC90E0918B808B81EC9A
:100B500090E0938B828B82EC90E0958B848B86EC7B
:100B600090E0978B868B118E128E138E148E0895C3
:100B700008950E94B8020E94B8050E94BD01C6EF08
:100B8000D5E00E9408022097E1F30E94F605F9CF14
:100B9000FC01918D228D892F90E0805C9F4F821BFC
:100BA00091098F7399270895FC01918D828D981773
:100BB00031F0828DE80FF11D858D90E008958FEF63
:100BC0009FEF0895FC01918D828D981761F0828DC1
:100BD000DF01A80FB11D5D968C91928D9F5F9F7371
:100BE000928F90E008958FEF9FEF089581E895E050
:100BF000892B41F080E090E0892B21F00E94810553
:100C0000811125C080E090E0892B41F080E090E0E8
:100C1000892B21F00E94000081111CC080E090E02F
:100C2000892B41F080E090E0892B21F00E940000A8
:100C3000811113C080E090E0892BA1F080E090E06A
:100C4000892B81F00E94000081110AC008950E9442
:100C50000000D8CF0E940000E1CF0E940000EACF40
:100C60000C9400000895FC01848DDF01A80FB11DD4
:100C7000A35ABF4F2C91848D90E001968F739927D2
:100C8000848FA689B7892C93A089B1898C918064BF
:100C90008C93938D848D981306C00288F389E02D80
:100CA00080818F7D80830895CF93DF93EC01888DC1
:100CB0008823C9F0EA89FB89808185FD05C0A88960
:100CC000B9898C9186FD0FC00FB607FCF5CF8081E6
:100CD00085FFF2CFA889B9898C9185FFEDCFCE0130
:100CE0000E943306E7CFDF91CF910895EF92FF92F4
:100CF0000F931F93CF93DF93EC019B8D8C8D9813F3
:100D000005C0E889F989808185FD27C0F62E0B8D05
:100D100010E00F5F1F4F0F731127E02E8C8DE8122C
:100D20000CC00FB607FCFACFE889F989808185FFEE
:100D3000F5CFCE010E943306F1CF8B8DFE01E80F77
:100D4000F11DE35AFF4FF0820B8FEA89FB89808106
:100D50008062808381E0888F08C0EE89FF8960838C
:100D6000E889F98980818064808381E090E0DF9167
:100D7000CF911F910F91FF90EF900895CF92DF9246
:100D8000EF92FF921F93CF93DF93EC016A017B01F7
:100D9000122FE889F98982E08083411581EE580796
:100DA00061057105B1F060E079E08DE390E0A701A5
:100DB00096010E947115DA01C9010197A109B109D3
:100DC000B695A79597958795AC01411580E1580791
:100DD000A8F0E889F989108260E874E88EE190E073
:100DE000A70196010E947115BA01A901415051094C
:100DF000610971097695679557954795EC85FD854D
:100E00005083EE85FF854083188EEC89FD89108321
:100E1000EA89FB89808180618083EA89FB898081FE
:100E200088608083EA89FB89808180688083EA8981
:100E3000FB8980818F7D8083DF91CF911F91FF900F
:100E4000EF90DF90CF9008958091CC0390E02091B7
:100E5000CD03821B910908959091CD038091CC031D
:100E6000981750F4E92FF0E0E253FC4F208130E076
:100E70009F5F9093CD0302C02FEF3FEFC90108950C
:100E8000E091CD038091CC03E81730F4F0E0E25319
:100E9000FC4F808190E008958FEF9FEF08950895B3
:100EA000CF92DF92EF92FF920F931F93CF93DF9336
:100EB0007C01262F972F8A018091A803882391F027
:100EC000C62FD72F6E01C40ED51ECC15DD0571F0CF
:100ED0006991D701ED91FC910190F081E02DC7015E
:100EE0001995F3CF642F822F0E94B308C801DF91B8
:100EF000CF911F910F91FF90EF90DF90CF900895C9
:100F0000CF93DF931F92CDB7DEB769832091A803FB
:100F10002223D1F02091A903203240F021E030E0DB
:100F2000FC013383228380E090E015C08091AA0306
:100F3000E82FF0E0E555FC4F998190838F5F809317
:100F4000AA038093A90305C061E0CE0101960E9427
:100F5000B30881E090E00F90DF91CF910895FC01FC
:100F60001382128288EE93E0A0E0B0E08483958340
:100F7000A683B78388E492E09183808308951092DA
:100F8000CD031092CC031092AA031092A9030C94E3
:100F9000FF07862F413208F040E26EEC73E00E94BA
:100FA0001D081092CD038093CC03089521E00C948A
:100FB000C90781E08093A8036093CB031092AA0332
:100FC0001092A90308950C94D9070F93062F21E0DE
:100FD0004091A9036BEA73E08091CB030E94610802
:100FE0001092AA031092A9031092A8030F910895DA
:100FF00061E00C94E5078CE993E00C94AF07109244
:101000005B0481E0809359041092580461E084E10C
:101010000E94B71261E085E10E94B712E9EBF0E0AF
:1010200080818E7F808380818D7F808388E4809320
:10103000B80085E48093BC000895413208F03FC0B9
:1010400090915B049111FCCF91E090935B0420930D
:1010500059042FEF2093EE0310923304240F2093B2
:10106000320490935A0490915A04880F892B8093EC
:101070005A0480915804813041F4109258048091B0
:101080005A048093BB0085EC01C085EE8093BC00C0
:1010900080915B048130E1F380913304841710F474
:1010A0004091330424E334E0FB01D9018A2F821BF1
:1010B000841718F48D918193F9CF842F089580E0DF
:1010C00008950F93413208F046C090915B0491114E
:1010D000FCCF32E030935B04009359043FEF309330
:1010E000EE031092330440933204FB0164E374E096
:1010F000DB013A2F361B341718F431913D93F9CFA9
:1011000010925A0430915A04880F832B80935A040A
:1011100080915804813041F41092580480915A040F
:101120008093BB0085EC01C085EE8093BC00222338
:1011300021F080915B048230D1F38091EE038F3FE8
:1011400079F08091EE03803241F08091EE0380339C
:1011500031F094E005C091E003C092E001C093E05B
:10116000892F0F910895613298F420915B04243007
:1011700089F460931004FC0122E134E0D9018A2F44
:10118000821B861718F481918D93F9CF80E0089522
:1011900081E0089582E0089585ED8093BC00809100
:1011A000BC0084FDFCCF10925B04089585EC809315
:1011B000BC0010925B0408951F920F920FB60F921D
:1011C00011240BB60F922F933F934F935F936F931E
:1011D0007F938F939F93AF93BF93EF93FF938091F0
:1011E000B900887F803609F49CC068F5883209F41C
:1011F0005BC090F4803109F454C038F4882309F4BA
:10120000F5C0883009F44DC0F5C0883109F44CC0F0
:10121000803209F45DC0EEC0803409F468C048F43F
:10122000803309F455C0883309F0E4C08093EE039D
:10123000A8C0803509F44FC0883509F45DC08834F2
:1012400009F0D8C0D5C0883909F4C6C0A8F48837D9
:1012500009F467C038F4883609F463C0803709F4AC
:1012600060C0C8C0883809F4B7C0803909F45FC0CD
:10127000803809F0BFC05BC0803B09F485C038F4FA
:10128000803A09F466C0883A09F47EC0B3C0803C55
:1012900009F4A6C0883C09F4A3C0883B09F489C0BE
:1012A000A9C080915A0410C09091330480913204F7
:1012B000981770F5E091330481E08E0F809333042A
:1012C000F0E0EC5CFB4F80818093BB0085EC85C037
:1012D0008093EE038DC0E091330481E08E0F809304
:1012E00033048091BB00F0E0EC5CFB4F8083909175
:1012F0003304809132046DC0E091330481E08E0F9D
:10130000809333048091BB00F0E0EC5CFB4F808362
:101310008091590481116CC081E08093580484EA63
:1013200060C083E080935B041092EF03CFCF809185
:10133000EF03803208F050C0E091EF0381E08E0FA0
:101340008093EF038091BB00F0E0E051FC4F80837D
:10135000BDCF8091EF03803230F4E091EF03F0E0F5
:10136000E051FC4F10820E94CC086091EF0370E0C6
:10137000E0915404F091550480EF93E01995109298
:10138000EF030E94D60836C084E080935B0410927D
:10139000110410921004E0915604F091570419952D
:1013A00080911004811105C081E080931004109297
:1013B0001204E091110481E08E0F80931104F0E09B
:1013C000EE5EFB4F80818093BB0090911104809171
:1013D0001004981708F47ACF85E88093BC000AC0FF
:1013E00085EC8093BC0010925B0404C01092EE0365
:1013F0000E94CC08FF91EF91BF91AF919F918F9187
:101400007F916F915F914F913F912F910F900BBE04
:101410000F900FBE0F901F901895FC011682178237
:1014200010861186128613861486158616861786F0
:10143000108A118A0895CF92DF92EF92FF920F9354
:101440001F93FC01428B538B648B758B068B178B20
:10145000208F318FC28ED38EE48EF58E1F910F9127
:10146000FF90EF90DF90CF9008951F93CF93DF937D
:101470001F92CDB7DEB7162F63E570E08CE993E0DD
:1014800049830E94E307612F8CE993E00E94800763
:101490004981642F8CE993E00E9480078CE993E0F6
:1014A0000F90DF91CF911F910C94F807EF92FF926C
:1014B0000F931F93CF93DF931F92CDB7DEB77C01BD
:1014C000062F142F48E06DE229830E94350A4BE075
:1014D00061E3C7010E94350A402F6EE1C7010E94F7
:1014E000350A412F6FE1C7010E94350A2981422F39
:1014F00060E2C7010F90DF91CF911F910F91FF9094
:10150000EF900C94350A0F931F93CF93DF9300D085
:101510001F92CDB7DEB7162F63E570E08CE993E03C
:101520002B833C8349835A830E94E307612F8CE914
:1015300093E00E9480078CE993E00E94F80763E53E
:1015400070E08CE993E00E94E30749815A8163E5EA
:1015500070E08CE993E00E94D6072B81022F3C813A
:10156000132F8CE993E00E942407892B41F08CE92A
:1015700093E00E942C07F80181938F01F2CF8CE950
:1015800093E00F900F900F900F90DF91CF911F91EC
:101590000F910C94F8070F931F93CF93DF9300D014
:1015A00000D0CDB7DEB78C019C0146E050E062E38D
:1015B0000E94830AF801438150E0542F442782811E
:1015C000482B658170E0762F66278481682B218106
:1015D00030E0322F22278081282B3A8329835C83B5
:1015E0004B837E836D833A815C817E8180E090E0D5
:1015F00026960FB6F894DEBF0FBECDBFDF91CF9118
:101600001F910F9108952F923F924F925F926F9288
:101610007F928F929F92AF92BF92CF92DF92EF9282
:10162000FF920F931F93CF93DF9300D000D0CDB7DD
:10163000DEB71C018B01CB010E94CB0A29833A83C0
:101640004B835C836D837E836B817C81882777FDF0
:101650008095982F0E942F1420E030E040E85BE353
:101660000E94E314F80126893789408D518D0E942C
:101670002C134B015C016D817E81882777FD80955D
:10168000982F0E942F1420E030E040E85BE30E9496
:10169000E314F801228D338D448D558D0E942C1357
:1016A0006B017C0169817A81882777FD8095982F6D
:1016B0000E942F1420E030E040E85BE30E94E31436
:1016C000F80122893389448955890E942C1320E02E
:1016D00030E040E05FE30E94E3142B013C0120E096
:1016E00030E040E05FE3F801668177818085918595
:1016F0000E94E3149B01AC01C301B2010E942C13B0
:10170000F1016083718382839383F8016683778319
:101710008087918720E030E040E05FE3C501B401BD
:101720000E94E3144B015C0120E030E040E05FE305
:10173000F80162857385848595850E94E3149B0179
:10174000AC01C501B4010E942C13F10164837583BF
:1017500086839783F801628773878487958720E063
:1017600030E040E05FE3C701B6010E94E3146B0183
:101770007C0120E030E040E05FE3F801668577859A
:10178000808991890E94E3149B01AC01C701B601D5
:101790000E942C13F1016087718782879387F8017B
:1017A00066877787808B918BC10126960FB6F89458
:1017B000DEBF0FBECDBFDF91CF911F910F91FF9084
:1017C000EF90DF90CF90BF90AF909F908F907F90E1
:1017D0006F905F904F903F902F9008954F925F923F
:1017E0006F927F928F929F92AF92BF92CF92DF9231
:1017F000EF92FF920F931F93CF93DF93CDB7DEB796
:1018000060970FB6F894DEBF0FBECDBF4C018B01C1
:1018100066E572E08FEF92E00E94580368EE73E095
:1018200080E090E00E94900268E672E08FEF92E024
:101830000E94580368EE73E080E090E00E949002FE
:101840006BE672E08FEF92E00E94750368EE73E042
:1018500080E090E00E949002A12CB12C1D861E8693
:101860001F86188AC12CD12C760126013701A016BB
:10187000B1068CF5B401CE0101960E94030B2981BB
:101880003A814B815C81C301B2010E942C132B0170
:101890003C012D813E814F815885C701B6010E94D0
:1018A0002C136B017C0129853A854B855C856D8500
:1018B0007E858F8598890E942C136D877E878F8700
:1018C000988B64E670E080E090E00E9490028FEFD9
:1018D000A81AB80ACCCF6EE672E08FEF92E00E94B1
:1018E000750362E872E08FEF92E00E945803B8013E
:1018F000882777FD8095982F0E942F144B015C015B
:101900009B01AC01C301B2010E94941320E030E0BE
:101910004AE754E40E94E314AB01BC0125E030E047
:101920008FEF92E00E940D0566E872E08FEF92E083
:101930000E945803A5019401C701B6010E949413A7
:1019400020E030E04AE754E40E94E314AB01BC011C
:1019500025E030E08FEF92E00E940D056BE872E029
:101960008FEF92E00E945803A50194016D857E855A
:101970008F8598890E94941320E030E04AE754E470
:101980000E94E314AB01BC0125E030E08FEF92E050
:101990000E940F0560ED77E080E090E060960FB662
:1019A000F894DEBF0FBECDBFDF91CF911F910F9195
:1019B000FF90EF90DF90CF90BF90AF909F908F906F
:1019C0007F906F905F904F900C949002CF92DF9237
:1019D000EF92FF920F931F93CF93DF936C018B01D4
:1019E0007A01EC01C35ADB4F888187FF04C0FB01F9
:1019F0001182108224C08CE08C9D90018D9D300D51
:101A000011248881A901480F511D87FD5A958091A5
:101A10005C0490E04817590794F48881A901480FA5
:101A2000511D87FD5A95CA01FA01EE0FFF1F8E0F57
:101A30009F1FFC01EF59FB4F808186FD19C08881F3
:101A40008F5F88838CE08C9D90018D9D300D1124DB
:101A50008881A901480F511D87FD5A9580915C042A
:101A600090E048175907BCF488818C3044F113C0CA
:101A70008881280F311D87FD3A95F901EE0FFF1F70
:101A80002E0F3F1FF901EF59FB4F808160E08F73EC
:101A90000E94B712D4CFF8018081918104968034DE
:101AA0009C4918F480E49CE904C0F801808191818C
:101AB0000496F701918380838FEF888345C0F801F6
:101AC000408151818881B901680F711D87FD7A9528
:101AD000CB01FB01EE0FFF1F8E0F9F1FFC01EF5983
:101AE000FB4F81819281840F951FF7019183808341
:101AF0008881A901480F511D87FD5A95CA01FA0135
:101B0000EE0FFF1F8E0F9F1FFC01EF59FB4F8081CF
:101B100086FF1AC08881280F311D87FD3A95F9018B
:101B2000EE0FFF1F2E0F3F1FF901EF59FB4F808172
:101B300061E08F73DF91CF911F910F91FF90EF9034
:101B4000DF90CF900C94B712DF91CF911F910F913E
:101B5000FF90EF90DF90CF9008951F920F920FB6F5
:101B60000F9211240BB60F922F933F934F935F93D5
:101B70006F937F938F939F93AF93BF93EF93FF9355
:101B800048E850E064E870E081E090E00E94E60CF4
:101B9000FF91EF91BF91AF919F918F917F916F9145
:101BA0005F914F913F912F910F900BBE0F900FBE01
:101BB0000F901F9018951F920F920FB60F9211243D
:101BC0000BB60F922F933F934F935F936F937F9337
:101BD0008F939F93AF93BF93EF93FF9348E950E0A8
:101BE00064E970E082E090E00E94E60CFF91EF91E2
:101BF000BF91AF919F918F917F916F915F914F9125
:101C00003F912F910F900BBE0F900FBE0F901F9022
:101C100018951F920F920FB60F9211240BB60F92C8
:101C20002F933F934F935F936F937F938F939F93E4
:101C3000AF93BF93EF93FF9348EA50E064EA70E0FC
:101C400083E090E00E94E60CFF91EF91BF91AF918D
:101C50009F918F917F916F915F914F913F912F91C4
:101C60000F900BBE0F900FBE0F901F9018951F92F4
:101C70000F920FB60F9211240BB60F922F933F9332
:101C80004F935F936F937F938F939F93AF93BF9384
:101C9000EF93FF9348E251E064E271E080E090E06E
:101CA0000E94E60CFF91EF91BF91AF919F918F91B0
:101CB0007F916F915F914F913F912F910F900BBE4C
:101CC0000F900FBE0F901F901895FC0190915C042F
:101CD0009033A0F481E0890F80935C049083892F76
:101CE00090E0FC01EE0FFF1F8E0F9F1FFC01EF59CC
:101CF000FB4F88EB9BE09283818308958FEF808375
:101D00000895DF92EF92FF920F931F93CF93DF938B
:101D1000EC01D62E7A0189018881803308F06AC0EF
:101D200061E08D2D0E947B128881E82FF0E09F01F9
:101D3000220F331FE20FF31FEF59FB4F9D2D9F73AF
:101D40002081207CD22ED92AD08260E272E0AB01C1
:101D50004E195F0957FF02C04D5F5F4F559547957C
:101D600055954795498340E659E09A01201B310B70
:101D700037FF02C02D5F3F4F359527953595279545
:101D80002A836CE00E9465159CE0899FB0011124B4
:101D900040E050E09A01260F371FF901EE0FFF1FB8
:101DA0002E0F3F1FF901EF59FB4F908196FD16C092
:101DB0004F5F5F4F4C30510569F7813021F510922C
:101DC000800082E080938100109285001092840050
:101DD000B19A80916F00826080936F00E881F0E09B
:101DE000CF01880F991FE80FF91FEF59FB4F808132
:101DF000806480838881DF91CF911F910F91FF9044
:101E0000EF90DF900895823061F4109290008093FB
:101E10009100109295001092940088BB80937100FD
:101E2000DDCF833069F41092A00082E08093A1009E
:101E30001092A5001092A40089BB80937200CECFAF
:101E40008111CCCF1092200182E080932101109269
:101E50002501109224018ABB80937300BFCF20E636
:101E600039E040E252E00C94810EFC019081903305
:101E700080F5818128E830E0281B310987FD339502
:101E8000220F331F220F331F621773077CF08281EA
:101E900028E532E0281B310987FD3395220F331FD7
:101EA000220F331F621773070CF49B012250310974
:101EB000220F331F4FB7F894892F90E0FC01EE0FEB
:101EC000FF1F8E0F9F1FFC01EF59FB4F32832183B1
:101ED0004FBF0895AF92BF92CF92DF92EF92FF92E1
:101EE0000F931F93CF93DF93EC01603282E078076A
:101EF0000CF03FC077FD06C0653B71052CF064EB2C
:101F000070E002C060E070E0898128E830E05901AB
:101F1000A81AB10887FDB394AA0CBB1CAA0CBB1C61
:101F2000CC24B7FCC094DC2C882777FD8095982FB3
:101F30002A8108E512E0021B110927FD1395000F05
:101F4000111F000F111F222717FD2095322F3F93DD
:101F50002F931F930F9314EBE12EF12C00E010E070
:101F600020E030E0A9010E94E7120F900F900F903F
:101F70000F90CE01DF91CF911F910F91FF90EF90C5
:101F8000DF90CF90BF90AF900C94350FFC01168678
:101F90001786108A118A1286138614861586168271
:101FA00017821086118608950F931F93CF93DF93A6
:101FB00000D01F92CDB7DEB7162F69E670E08CE92E
:101FC00093E02B833C8349835A830E94E307612F6C
:101FD0008CE993E00E9480078CE993E00E94F80767
:101FE00069E670E08CE993E00E94E30749815A8139
:101FF00069E670E08CE993E00E94D6072B81022FFE
:102000003C81132F8CE993E00E942407892B41F037
:102010008CE993E00E942C07F80181938F01F2CFA5
:102020008CE993E00F900F900F900F90DF91CF917C
:102030001F910F910C94F8070F931F93CF93DF9389
:1020400000D000D0CDB7DEB78C019C0146E050E057
:1020500068EA0E94D40FF801438150E0542F4427CE
:102060008281482B658170E0762F66278481682BFA
:10207000218130E0322F22278081282B3A83298347
:102080005C834B837E836D833A815C817E8180E0BB
:1020900090E026960FB6F894DEBF0FBECDBFDF915D
:1020A000CF911F910F9108952F923F924F925F927F
:1020B0006F927F928F929F92AF92BF92CF92DF9258
:1020C000EF92FF920F931F93CF93DF9300D000D036
:1020D000CDB7DEB71C018B01CB010E941C102983F8
:1020E0003A834B835C836D837E836B817C818827FD
:1020F00077FD8095982F0E942F1429E23CE54FE050
:102100005CE30E94E314F80126893789408D518DE4
:102110000E942C134B015C016D817E81882777FD25
:102120008095982F0E942F1429E23CE54FE05CE354
:102130000E94E314F801228D338D448D558D0E9449
:102140002C136B017C0169817A81882777FD80954A
:10215000982F0E942F1429E23CE54FE05CE30E9497
:10216000E314F80122893389448955890E942C138C
:102170002AE939E949E95EE30E94E3142B013C01B5
:1021800023E333E343E35FE3F801668177818085EE
:1021900091850E94E3149B01AC01C301B2010E942E
:1021A0002C13F1016083718382839383F80166832A
:1021B0007783808791872AE939E949E95EE3C50198
:1021C000B4010E94E3144B015C0123E333E343E3D6
:1021D0005FE3F80162857385848595850E94E31429
:1021E0009B01AC01C501B4010E942C13F101648371
:1021F000758386839783F8016287738784879587C1
:102200002AE939E949E95EE3C701B6010E94E3140E
:102210006B017C0123E333E343E35FE3F80166856D
:102220007785808991890E94E3149B01AC01C701E5
:10223000B6010E942C13F101608771878287938712
:10224000F80166877787808B918BC10126960FB640
:10225000F894DEBF0FBECDBFDF91CF911F910F91DC
:10226000FF90EF90DF90CF90BF90AF909F908F90B6
:102270007F906F905F904F903F902F9008954F9276
:102280005F926F927F928F929F92AF92BF92CF9206
:10229000DF92EF92FF920F931F93CF93DF93CDB70F
:1022A000DEB760970FB6F894DEBF0FBECDBF4C010E
:1022B0008B0166E572E08FEF92E00E94580368EEB2
:1022C00073E080E090E00E94900268E672E08FEF99
:1022D00092E00E94580368EE73E080E090E00E9474
:1022E00090026BE672E08FEF92E00E94750368EE59
:1022F00073E080E090E00E949002A12CB12C1D863A
:102300001E861F86188AC12CD12C76012601370122
:10231000A016B1068CF5B401CE0101960E945410AE
:1023200029813A814B815C81C301B2010E942C1347
:102330002B013C012D813E814F815885C701B6019B
:102340000E942C136B017C0129853A854B855C85A5
:102350006D857E858F8598890E942C136D877E8779
:102360008F87988B64E670E080E090E00E94900296
:102370008FEFA81AB80ACCCF6AE972E08FEF92E02B
:102380000E94750362E872E08FEF92E00E945803AA
:10239000B801882777FD8095982F0E942F144B0154
:1023A0005C019B01AC01C301B2010E949413AB011B
:1023B000BC0125E030E08FEF92E00E940D0566E859
:1023C00072E08FEF92E00E945803A5019401C701CB
:1023D000B6010E949413AB01BC0125E030E08FEF01
:1023E00092E00E940D056BE872E08FEF92E00E9490
:1023F0005803A50194016D857E858F8598890E947B
:102400009413AB01BC0125E030E08FEF92E00E9415
:102410000F0560ED77E080E090E060960FB6F894ED
:10242000DEBF0FBECDBFDF91CF911F910F91FF9007
:10243000EF90DF90CF90BF90AF909F908F907F9064
:102440006F905F904F900C94900290E0FC01319758
:10245000E231F10508F04EC08827EE58FF4F8F4F4C
:102460000C94B215809180008F7703C0809180001A
:102470008F7D80938000089580918000877FF9CFC1
:1024800084B58F7702C084B58F7D84BD0895809117
:10249000B0008F7703C08091B0008F7D8093B00033
:1024A0000895809190008F7707C0809190008F7D74
:1024B00003C080919000877F809390000895809161
:1024C000A0008F7707C08091A0008F7D03C080910E
:1024D000A000877F8093A0000895809120018F77CE
:1024E00007C0809120018F7D03C080912001877FEC
:1024F000809320010895CF93DF9390E0FC01EA528E
:10250000FE4F2491FC01E45EFD4F8491882361F12C
:1025100090E0880F991FFC01E458FD4FC591D491BC
:10252000FC01EE59FD4FA591B491611109C09FB70F
:10253000F8948881209582238883EC912E230BC008
:10254000623061F49FB7F8943881822F809583239D
:102550008883EC912E2B2C939FBF06C08FB7F894E5
:10256000E8812E2B28838FBFDF91CF9108951F9391
:10257000CF93DF93282F30E0F901E057FE4F84918D
:10258000F901EA52FE4FD491F901E45EFD4FC49186
:10259000CC23C9F0162F81110E942512EC2FF0E0F8
:1025A000EE0FFF1FEE59FD4FA591B4918FB7F89430
:1025B000111105C09C91ED2FE095E92302C0EC912B
:1025C000ED2BEC938FBFDF91CF911F9108954F9228
:1025D0005F926F927F92AF92BF92CF92DF92EF9213
:1025E000FF920F931F93CF93DF93CDB7DEB72901EF
:1025F0003A019B01AC0124193509460957098A891A
:102600009B89AC89BD89BC01CD016A197B098C0904
:102610009D090E945515A8019701241935094609FD
:1026200057090E949315CA01B9016A0D7B1D8C1DC3
:102630009D1DDF91CF911F910F91FF90EF90DF9043
:10264000CF90BF90AF907F906F905F904F90089524
:10265000F8940C94C9155058BB27AA270ED075C101
:1026600066D130F06BD120F031F49F3F11F41EF4AD
:102670005BC10EF4E095E7FB51C1E92F77D180F300
:10268000BA17620773078407950718F071F49EF56F
:102690008FC10EF4E0950B2EBA2FA02D0B01B901BE
:1026A00090010C01CA01A0011124FF27591B99F0C8
:1026B000593F50F4503E68F11A16F040A22F232FD4
:1026C000342F4427585FF3CF469537952795A79524
:1026D000F0405395C9F77EF41F16BA0B620B730BCB
:1026E000840BBAF09150A1F0FF0FBB1F661F771F3C
:1026F000881FC2F70EC0BA0F621F731F841F48F4F1
:10270000879577956795B795F7959E3F08F0B3CF76
:102710009395880F08F09927EE0F97958795089560
:10272000D9D008F481E008950CD00FC107D140F052
:10273000FED030F021F45F3F19F0F0C0511139C1E3
:10274000F3C014D198F39923C9F35523B1F3951B22
:10275000550BBB27AA2762177307840738F09F5FC2
:102760005F4F220F331F441FAA1FA9F333D00E2E31
:102770003AF0E0E830D091505040E695001CCAF79E
:1027800029D0FE2F27D0660F771F881FBB1F261763
:1027900037074807AB07B0E809F0BB0B802DBF0136
:1027A000FF2793585F4F2AF09E3F510568F0B6C04F
:1027B00000C15F3FECF3983EDCF386957795679513
:1027C000B795F7959F5FC9F7880F911D96958795E7
:1027D00097F90895E1E0660F771F881FBB1F621706
:1027E00073078407BA0720F0621B730B840BBA0BC4
:1027F000EE1F88F7E095089504D06894B111D9C010
:102800000895BCD088F09F5790F0B92F9927B75101
:10281000A0F0D1F0660F771F881F991F1AF0BA95A4
:10282000C9F712C0B13081F0C3D0B1E00895C0C083
:10283000672F782F8827B85F39F0B93FCCF386959A
:1028400077956795B395D9F73EF4909580957095F7
:1028500061957F4F8F4F9F4F0895E89409C097FB74
:102860003EF490958095709561957F4F8F4F9F4F67
:102870009923A9F0F92F96E9BB279395F6958795AB
:1028800077956795B795F111F8CFFAF4BB0F11F46E
:1028900060FF1BC06F5F7F4F8F4F9F4F16C0882315
:1028A00011F096E911C0772321F09EE8872F762F4B
:1028B00005C0662371F096E8862F70E060E02AF08C
:1028C0009A95660F771F881FDAF7880F9695879578
:1028D00097F90895990F0008550FAA0BE0E8FEEF4D
:1028E00016161706E807F907C0F012161306E407D4
:1028F000F50798F0621B730B840B950B39F40A26CD
:1029000061F0232B242B252B21F408950A2609F4AA
:10291000A140A6958FEF811D811D089597F99F67AE
:1029200080E870E060E008959FEF80EC0895002457
:102930000A941616170618060906089500240A9424
:1029400012161306140605060895092E0394000CAA
:1029500011F4882352F0BB0F40F4BF2B11F460FF39
:1029600004C06F5F7F4F8F4F9F4F089557FD905862
:10297000440F551F59F05F3F71F04795880F97FB43
:10298000991F61F09F3F79F08795089512161306FD
:102990001406551FF2CF4695F1DF08C0161617062C
:1029A0001806991FF1CF8695710561050894089561
:1029B000E894BB2766277727CB0197F908958ADF2C
:1029C00008F48FEF08950BD0C0CFB1DF28F0B6DF49
:1029D00018F0952309F0A2CFA7CF1124EACFC6DFC4
:1029E000A0F3959FD1F3950F50E0551F629FF00122
:1029F000729FBB27F00DB11D639FAA27F00DB11D7B
:102A0000AA1F649F6627B00DA11D661F829F222703
:102A1000B00DA11D621F739FB00DA11D621F839F8A
:102A2000A00D611D221F749F3327A00D611D231F60
:102A3000849F600D211D822F762F6A2F11249F57AE
:102A400050408AF0E1F088234AF0EE0FFF1FBB1FD1
:102A5000661F771F881F91505040A9F79E3F510570
:102A600070F05CCFA6CF5F3FECF3983EDCF3869529
:102A700077956795B795F795E7959F5FC1F7FE2B1B
:102A8000880F911D9695879597F9089523DF880BF8
:102A9000990B08950E94BA15A59F900DB49F900DB3
:102AA000A49F800D911D11240895DB018F939F93A6
:102AB0000E944A15BF91AF91A29F800D911DA39FC7
:102AC000900DB29F900D11240895991B79E004C0D8
:102AD000991F961708F0961B881F7A95C9F780955D
:102AE0000895A1E21A2EAA1BBB1BFD010DC0AA1F4F
:102AF000BB1FEE1FFF1FA217B307E407F50720F067
:102B0000A21BB30BE40BF50B661F771F881F991FE1
:102B10001A9469F760957095809590959B01AC012A
:102B2000BD01CF010895052E97FB1EF400940E946D
:102B3000AA1557FD07D00E94711507FC03D04EF46B
:102B40000C94AA1550954095309521953F4F4F4FC5
:102B50005F4F089590958095709561957F4F8F4F49
:102B60009F4F0895EE0FFF1F881F8BBF0790F691B0
:102B7000E02D1994A29FB001B39FC001A39F700DD7
:102B8000811D1124911DB29F700D811D1124911D75
:062B90000895F894FFCF48
:102B96000A526561647900416363656C65726F6DA5
:102BA600657465722052656164792E004779726F8B
:102BB6002052656164792E006E616E00696E660052
:102BC6006F7666000000000076061B03C805E20566
:102BD600D4055406000000008007500724072C0780
:102BE60040074F07420043616C6962726174696F06
:102BF6006E20696E3A203300203200203100416396
:102C060063656C204F666673657420286D67293A84
:102C16002000583A200020593A2000205A3A200035
:102C2600307830303A20003078004779726F204F84
:0E2C360066667365742028647073293A200066
:00000001FF
